{
  "_format": "hh-sol-artifact-1",
  "contractName": "OfflinePayment",
  "sourceName": "contracts/OfflinePayment.sol",
  "abi": [
    {
      "anonymous": false,
      "inputs": [
        {
          "indexed": true,
          "internalType": "address",
          "name": "from",
          "type": "address"
        },
        {
          "indexed": true,
          "internalType": "address",
          "name": "to",
          "type": "address"
        },
        {
          "indexed": false,
          "internalType": "uint256",
          "name": "amount",
          "type": "uint256"
        },
        {
          "indexed": false,
          "internalType": "bytes32",
          "name": "txHash",
          "type": "bytes32"
        }
      ],
      "name": "PaymentProcessed",
      "type": "event"
    },
    {
      "inputs": [],
      "name": "PAYMENT_EXPIRY",
      "outputs": [
        {
          "internalType": "uint256",
          "name": "",
          "type": "uint256"
        }
      ],
      "stateMutability": "view",
      "type": "function"
    },
    {
      "inputs": [
        {
          "internalType": "bytes32",
          "name": "",
          "type": "bytes32"
        }
      ],
      "name": "usedTxs",
      "outputs": [
        {
          "internalType": "bool",
          "name": "",
          "type": "bool"
        }
      ],
      "stateMutability": "view",
      "type": "function"
    },
    {
      "inputs": [
        {
          "internalType": "address",
          "name": "from",
          "type": "address"
        },
        {
          "internalType": "address",
          "name": "to",
          "type": "address"
        },
        {
          "internalType": "uint256",
          "name": "amount",
          "type": "uint256"
        },
        {
          "internalType": "uint256",
          "name": "timestamp",
          "type": "uint256"
        },
        {
          "internalType": "uint256",
          "name": "chainId",
          "type": "uint256"
        },
        {
          "internalType": "bytes",
          "name": "signature",
          "type": "bytes"
        }
      ],
      "name": "verifyAndDeposit",
      "outputs": [],
      "stateMutability": "payable",
      "type": "function"
    },
    {
      "stateMutability": "payable",
      "type": "receive"
    }
  ],
  "bytecode": "0x6080604052348015600f57600080fd5b506110708061001f6000396000f3fe6080604052600436106100385760003560e01c80638d88e8c81461004457806399cbd65a1461006f578063ce5f1f2f146100ac5761003f565b3661003f57005b600080fd5b34801561005057600080fd5b506100596100c8565b604051610066919061061d565b60405180910390f35b34801561007b57600080fd5b5061009660048036038101906100919190610682565b6100cf565b6040516100a391906106ca565b60405180910390f35b6100c660048036038101906100c191906108b5565b6100ef565b005b6201518081565b60006020528060005260406000206000915054906101000a900460ff1681565b62015180426100fe919061098d565b831015610140576040517f08c379a000000000000000000000000000000000000000000000000000000000815260040161013790610a1e565b60405180910390fd5b468214610182576040517f08c379a000000000000000000000000000000000000000000000000000000000815260040161017990610a8a565b60405180910390fd5b6000868686868660405160200161019d959493929190610b13565b60405160208183030381529060405280519060200120905060006101c082610416565b905060006101ce8285610446565b90508873ffffffffffffffffffffffffffffffffffffffff168173ffffffffffffffffffffffffffffffffffffffff161461023e576040517f08c379a000000000000000000000000000000000000000000000000000000000815260040161023590610bbe565b60405180910390fd5b60008385604051602001610253929190610c70565b60405160208183030381529060405280519060200120905060008082815260200190815260200160002060009054906101000a900460ff16156102cb576040517f08c379a00000000000000000000000000000000000000000000000000000000081526004016102c290610ce4565b60405180910390fd5b600160008083815260200190815260200160002060006101000a81548160ff02191690831515021790555060008973ffffffffffffffffffffffffffffffffffffffff168960405161031c90610d2a565b60006040518083038185875af1925050503d8060008114610359576040519150601f19603f3d011682016040523d82523d6000602084013e61035e565b606091505b50509050806103a2576040517f08c379a000000000000000000000000000000000000000000000000000000000815260040161039990610d8b565b60405180910390fd5b8973ffffffffffffffffffffffffffffffffffffffff168b73ffffffffffffffffffffffffffffffffffffffff167fa564c7aab084500bc4fd71db92b2f1273079a843906d8e7661ad929afaf3f3798b85604051610401929190610dba565b60405180910390a35050505050505050505050565b6000816040516020016104299190610e3a565b604051602081830303815290604052805190602001209050919050565b6000806000806104558561051b565b9250925092507f7fffffffffffffffffffffffffffffff5d576e7357a4501ddfe92f46681b20a08160001c11156104c1576040517f08c379a00000000000000000000000000000000000000000000000000000000081526004016104b890610eac565b60405180910390fd5b600186848484604051600081526020016040526040516104e49493929190610ee8565b6020604051602081039080840390855afa158015610506573d6000803e3d6000fd5b50505060206040510351935050505092915050565b60008060006041845114610564576040517f08c379a000000000000000000000000000000000000000000000000000000000815260040161055b90610f79565b60405180910390fd5b60008060006020870151925060408701519150606087015160001a9050601b8160ff16101561059d57601b8161059a9190610f99565b90505b601b8160ff1614806105b25750601c8160ff16145b6105f1576040517f08c379a00000000000000000000000000000000000000000000000000000000081526004016105e89061101a565b60405180910390fd5b8083839550955095505050509193909250565b6000819050919050565b61061781610604565b82525050565b6000602082019050610632600083018461060e565b92915050565b6000604051905090565b600080fd5b600080fd5b6000819050919050565b61065f8161064c565b811461066a57600080fd5b50565b60008135905061067c81610656565b92915050565b60006020828403121561069857610697610642565b5b60006106a68482850161066d565b91505092915050565b60008115159050919050565b6106c4816106af565b82525050565b60006020820190506106df60008301846106bb565b92915050565b600073ffffffffffffffffffffffffffffffffffffffff82169050919050565b6000610710826106e5565b9050919050565b61072081610705565b811461072b57600080fd5b50565b60008135905061073d81610717565b92915050565b61074c81610604565b811461075757600080fd5b50565b60008135905061076981610743565b92915050565b600080fd5b600080fd5b6000601f19601f8301169050919050565b7f4e487b7100000000000000000000000000000000000000000000000000000000600052604160045260246000fd5b6107c282610779565b810181811067ffffffffffffffff821117156107e1576107e061078a565b5b80604052505050565b60006107f4610638565b905061080082826107b9565b919050565b600067ffffffffffffffff8211156108205761081f61078a565b5b61082982610779565b9050602081019050919050565b82818337600083830152505050565b600061085861085384610805565b6107ea565b90508281526020810184848401111561087457610873610774565b5b61087f848285610836565b509392505050565b600082601f83011261089c5761089b61076f565b5b81356108ac848260208601610845565b91505092915050565b60008060008060008060c087890312156108d2576108d1610642565b5b60006108e089828a0161072e565b96505060206108f189828a0161072e565b955050604061090289828a0161075a565b945050606061091389828a0161075a565b935050608061092489828a0161075a565b92505060a087013567ffffffffffffffff81111561094557610944610647565b5b61095189828a01610887565b9150509295509295509295565b7f4e487b7100000000000000000000000000000000000000000000000000000000600052601160045260246000fd5b600061099882610604565b91506109a383610604565b92508282039050818111156109bb576109ba61095e565b5b92915050565b600082825260208201905092915050565b7f5061796d656e7420657870697265640000000000000000000000000000000000600082015250565b6000610a08600f836109c1565b9150610a13826109d2565b602082019050919050565b60006020820190508181036000830152610a37816109fb565b9050919050565b7f57726f6e6720636861696e204944000000000000000000000000000000000000600082015250565b6000610a74600e836109c1565b9150610a7f82610a3e565b602082019050919050565b60006020820190508181036000830152610aa381610a67565b9050919050565b60008160601b9050919050565b6000610ac282610aaa565b9050919050565b6000610ad482610ab7565b9050919050565b610aec610ae782610705565b610ac9565b82525050565b6000819050919050565b610b0d610b0882610604565b610af2565b82525050565b6000610b1f8288610adb565b601482019150610b2f8287610adb565b601482019150610b3f8286610afc565b602082019150610b4f8285610afc565b602082019150610b5f8284610afc565b6020820191508190509695505050505050565b7f496e76616c6964207369676e6174757265000000000000000000000000000000600082015250565b6000610ba86011836109c1565b9150610bb382610b72565b602082019050919050565b60006020820190508181036000830152610bd781610b9b565b9050919050565b6000819050919050565b610bf9610bf48261064c565b610bde565b82525050565b600081519050919050565b600081905092915050565b60005b83811015610c33578082015181840152602081019050610c18565b60008484015250505050565b6000610c4a82610bff565b610c548185610c0a565b9350610c64818560208601610c15565b80840191505092915050565b6000610c7c8285610be8565b602082019150610c8c8284610c3f565b91508190509392505050565b7f416c726561647920757365640000000000000000000000000000000000000000600082015250565b6000610cce600c836109c1565b9150610cd982610c98565b602082019050919050565b60006020820190508181036000830152610cfd81610cc1565b9050919050565b50565b6000610d14600083610c0a565b9150610d1f82610d04565b600082019050919050565b6000610d3582610d07565b9150819050919050565b7f5472616e73666572206661696c65640000000000000000000000000000000000600082015250565b6000610d75600f836109c1565b9150610d8082610d3f565b602082019050919050565b60006020820190508181036000830152610da481610d68565b9050919050565b610db48161064c565b82525050565b6000604082019050610dcf600083018561060e565b610ddc6020830184610dab565b9392505050565b600081905092915050565b7f19457468657265756d205369676e6564204d6573736167653a0a333200000000600082015250565b6000610e24601c83610de3565b9150610e2f82610dee565b601c82019050919050565b6000610e4582610e17565b9150610e518284610be8565b60208201915081905092915050565b7f496e76616c6964207369676e6174757265202773272076616c75650000000000600082015250565b6000610e96601b836109c1565b9150610ea182610e60565b602082019050919050565b60006020820190508181036000830152610ec581610e89565b9050919050565b600060ff82169050919050565b610ee281610ecc565b82525050565b6000608082019050610efd6000830187610dab565b610f0a6020830186610ed9565b610f176040830185610dab565b610f246060830184610dab565b95945050505050565b7f496e76616c6964207369676e6174757265206c656e6774680000000000000000600082015250565b6000610f636018836109c1565b9150610f6e82610f2d565b602082019050919050565b60006020820190508181036000830152610f9281610f56565b9050919050565b6000610fa482610ecc565b9150610faf83610ecc565b9250828201905060ff811115610fc857610fc761095e565b5b92915050565b7f496e76616c6964207369676e6174757265202776272076616c75650000000000600082015250565b6000611004601b836109c1565b915061100f82610fce565b602082019050919050565b6000602082019050818103600083015261103381610ff7565b905091905056fea264697066735822122045b26ddb9b25e9c56592978b6b2c305454515b5b53113deaa29c32609f856ca264736f6c634300081c0033",
  "linkReferences": {},
  "deployedLinkReferences": {}
}