{
  "_format": "hh-sol-artifact-1",
  "contractName": "BidirectionalPaymentChannel",
  "sourceName": "contracts/BidirectionalPaymentChannel.sol",
  "abi": [
    {
      "inputs": [
        {
          "internalType": "address",
          "name": "_partyB",
          "type": "address"
        },
        {
          "internalType": "uint256",
          "name": "_duration",
          "type": "uint256"
        }
      ],
      "stateMutability": "payable",
      "type": "constructor"
    },
    {
      "anonymous": false,
      "inputs": [
        {
          "indexed": false,
          "internalType": "uint256",
          "name": "balanceA",
          "type": "uint256"
        },
        {
          "indexed": false,
          "internalType": "uint256",
          "name": "balanceB",
          "type": "uint256"
        }
      ],
      "name": "ChannelClosed",
      "type": "event"
    },
    {
      "anonymous": false,
      "inputs": [
        {
          "indexed": true,
          "internalType": "address",
          "name": "from",
          "type": "address"
        },
        {
          "indexed": false,
          "internalType": "uint256",
          "name": "amount",
          "type": "uint256"
        }
      ],
      "name": "ChannelFunded",
      "type": "event"
    },
    {
      "anonymous": false,
      "inputs": [
        {
          "indexed": false,
          "internalType": "address",
          "name": "submitter",
          "type": "address"
        },
        {
          "indexed": false,
          "internalType": "uint256",
          "name": "balanceA",
          "type": "uint256"
        },
        {
          "indexed": false,
          "internalType": "uint256",
          "name": "balanceB",
          "type": "uint256"
        }
      ],
      "name": "FinalStateSubmitted",
      "type": "event"
    },
    {
      "inputs": [],
      "name": "depositA",
      "outputs": [
        {
          "internalType": "uint256",
          "name": "",
          "type": "uint256"
        }
      ],
      "stateMutability": "view",
      "type": "function"
    },
    {
      "inputs": [],
      "name": "depositB",
      "outputs": [
        {
          "internalType": "uint256",
          "name": "",
          "type": "uint256"
        }
      ],
      "stateMutability": "view",
      "type": "function"
    },
    {
      "inputs": [],
      "name": "expiryTime",
      "outputs": [
        {
          "internalType": "uint256",
          "name": "",
          "type": "uint256"
        }
      ],
      "stateMutability": "view",
      "type": "function"
    },
    {
      "inputs": [],
      "name": "fundChannelByPartyB",
      "outputs": [],
      "stateMutability": "payable",
      "type": "function"
    },
    {
      "inputs": [],
      "name": "isClosed",
      "outputs": [
        {
          "internalType": "bool",
          "name": "",
          "type": "bool"
        }
      ],
      "stateMutability": "view",
      "type": "function"
    },
    {
      "inputs": [],
      "name": "partyA",
      "outputs": [
        {
          "internalType": "address",
          "name": "",
          "type": "address"
        }
      ],
      "stateMutability": "view",
      "type": "function"
    },
    {
      "inputs": [],
      "name": "partyB",
      "outputs": [
        {
          "internalType": "address",
          "name": "",
          "type": "address"
        }
      ],
      "stateMutability": "view",
      "type": "function"
    },
    {
      "inputs": [
        {
          "internalType": "uint256",
          "name": "balanceA",
          "type": "uint256"
        },
        {
          "internalType": "uint256",
          "name": "balanceB",
          "type": "uint256"
        },
        {
          "internalType": "uint256",
          "name": "nonce",
          "type": "uint256"
        },
        {
          "internalType": "bytes",
          "name": "sigA",
          "type": "bytes"
        },
        {
          "internalType": "bytes",
          "name": "sigB",
          "type": "bytes"
        }
      ],
      "name": "submitFinalState",
      "outputs": [],
      "stateMutability": "nonpayable",
      "type": "function"
    },
    {
      "inputs": [],
      "name": "timeoutWithdraw",
      "outputs": [],
      "stateMutability": "nonpayable",
      "type": "function"
    },
    {
      "inputs": [
        {
          "internalType": "bytes32",
          "name": "",
          "type": "bytes32"
        }
      ],
      "name": "usedStates",
      "outputs": [
        {
          "internalType": "bool",
          "name": "",
          "type": "bool"
        }
      ],
      "stateMutability": "view",
      "type": "function"
    },
    {
      "stateMutability": "payable",
      "type": "receive"
    }
  ],
  "bytecode": "0x6080604052604051611ba2380380611ba2833981810160405281019061002591906101cd565b336000806101000a81548173ffffffffffffffffffffffffffffffffffffffff021916908373ffffffffffffffffffffffffffffffffffffffff16021790555081600160006101000a81548173ffffffffffffffffffffffffffffffffffffffff021916908373ffffffffffffffffffffffffffffffffffffffff16021790555080426100b2919061023c565b6002819055503460038190555060008054906101000a900473ffffffffffffffffffffffffffffffffffffffff1673ffffffffffffffffffffffffffffffffffffffff167f098da306ddd2537f6447ac21569057632d7b220958901a59f69213c81495e64834604051610125919061027f565b60405180910390a2505061029a565b600080fd5b600073ffffffffffffffffffffffffffffffffffffffff82169050919050565b600061016482610139565b9050919050565b61017481610159565b811461017f57600080fd5b50565b6000815190506101918161016b565b92915050565b6000819050919050565b6101aa81610197565b81146101b557600080fd5b50565b6000815190506101c7816101a1565b92915050565b600080604083850312156101e4576101e3610134565b5b60006101f285828601610182565b9250506020610203858286016101b8565b9150509250929050565b7f4e487b7100000000000000000000000000000000000000000000000000000000600052601160045260246000fd5b600061024782610197565b915061025283610197565b925082820190508082111561026a5761026961020d565b5b92915050565b61027981610197565b82525050565b60006020820190506102946000830184610270565b92915050565b6118f9806102a96000396000f3fe6080604052600436106100955760003560e01c8063809bd1ec11610059578063809bd1ec1461014157806399bc0aea1461017e578063c2b6b58c146101a9578063c3fcd42a146101d4578063f2daab00146101ff5761009c565b806310e1d8ca146100a157806329040113146100cc57806343737c59146100f7578063671362c9146101015780636ff17bb01461012a5761009c565b3661009c57005b600080fd5b3480156100ad57600080fd5b506100b661022a565b6040516100c39190610dc4565b60405180910390f35b3480156100d857600080fd5b506100e161024e565b6040516100ee9190610dc4565b60405180910390f35b6100ff610274565b005b34801561010d57600080fd5b5061012860048036038101906101239190610f6f565b610412565b005b34801561013657600080fd5b5061013f6108ff565b005b34801561014d57600080fd5b5061016860048036038101906101639190611058565b610ba8565b60405161017591906110a0565b60405180910390f35b34801561018a57600080fd5b50610193610bc8565b6040516101a091906110ca565b60405180910390f35b3480156101b557600080fd5b506101be610bce565b6040516101cb91906110a0565b60405180910390f35b3480156101e057600080fd5b506101e9610be1565b6040516101f691906110ca565b60405180910390f35b34801561020b57600080fd5b50610214610be7565b60405161022191906110ca565b60405180910390f35b60008054906101000a900473ffffffffffffffffffffffffffffffffffffffff1681565b600160009054906101000a900473ffffffffffffffffffffffffffffffffffffffff1681565b600560009054906101000a900460ff16156102c4576040517f08c379a00000000000000000000000000000000000000000000000000000000081526004016102bb90611142565b60405180910390fd5b600060045414610309576040517f08c379a0000000000000000000000000000000000000000000000000000000008152600401610300906111ae565b60405180910390fd5b600160009054906101000a900473ffffffffffffffffffffffffffffffffffffffff1673ffffffffffffffffffffffffffffffffffffffff163373ffffffffffffffffffffffffffffffffffffffff1614610399576040517f08c379a00000000000000000000000000000000000000000000000000000000081526004016103909061121a565b60405180910390fd5b34600481905550600160009054906101000a900473ffffffffffffffffffffffffffffffffffffffff1673ffffffffffffffffffffffffffffffffffffffff167f098da306ddd2537f6447ac21569057632d7b220958901a59f69213c81495e6483460405161040891906110ca565b60405180910390a2565b60008054906101000a900473ffffffffffffffffffffffffffffffffffffffff1673ffffffffffffffffffffffffffffffffffffffff163373ffffffffffffffffffffffffffffffffffffffff1614806104b95750600160009054906101000a900473ffffffffffffffffffffffffffffffffffffffff1673ffffffffffffffffffffffffffffffffffffffff163373ffffffffffffffffffffffffffffffffffffffff16145b6104f8576040517f08c379a00000000000000000000000000000000000000000000000000000000081526004016104ef90611286565b60405180910390fd5b600560009054906101000a900460ff1615610548576040517f08c379a000000000000000000000000000000000000000000000000000000000815260040161053f90611142565b60405180910390fd5b600085858530604051602001610561949392919061130f565b6040516020818303038152906040528051906020012090506006600082815260200190815260200160002060009054906101000a900460ff16156105da576040517f08c379a00000000000000000000000000000000000000000000000000000000081526004016105d1906113a9565b60405180910390fd5b60016006600083815260200190815260200160002060006101000a81548160ff02191690831515021790555060008054906101000a900473ffffffffffffffffffffffffffffffffffffffff1673ffffffffffffffffffffffffffffffffffffffff166106478285610bed565b73ffffffffffffffffffffffffffffffffffffffff161461069d576040517f08c379a000000000000000000000000000000000000000000000000000000000815260040161069490611415565b60405180910390fd5b600160009054906101000a900473ffffffffffffffffffffffffffffffffffffffff1673ffffffffffffffffffffffffffffffffffffffff166106e08284610bed565b73ffffffffffffffffffffffffffffffffffffffff1614610736576040517f08c379a000000000000000000000000000000000000000000000000000000000815260040161072d90611481565b60405180910390fd5b6001600560006101000a81548160ff02191690831515021790555047858761075e91906114d0565b111561079f576040517f08c379a000000000000000000000000000000000000000000000000000000000815260040161079690611550565b60405180910390fd5b60008611156108105760008054906101000a900473ffffffffffffffffffffffffffffffffffffffff1673ffffffffffffffffffffffffffffffffffffffff166108fc879081150290604051600060405180830381858888f1935050505015801561080e573d6000803e3d6000fd5b505b600085111561088357600160009054906101000a900473ffffffffffffffffffffffffffffffffffffffff1673ffffffffffffffffffffffffffffffffffffffff166108fc869081150290604051600060405180830381858888f19350505050158015610881573d6000803e3d6000fd5b505b7ff291f294338e6549f4168c3d604247a724a918730f7cf7ae57753be0acb0657c3387876040516108b693929190611570565b60405180910390a17f1273b19bd37db7541ec10aebcb7899427619b2685565bd3c7b184c2732f8118e86866040516108ef9291906115a7565b60405180910390a1505050505050565b60008054906101000a900473ffffffffffffffffffffffffffffffffffffffff1673ffffffffffffffffffffffffffffffffffffffff163373ffffffffffffffffffffffffffffffffffffffff1614806109a65750600160009054906101000a900473ffffffffffffffffffffffffffffffffffffffff1673ffffffffffffffffffffffffffffffffffffffff163373ffffffffffffffffffffffffffffffffffffffff16145b6109e5576040517f08c379a00000000000000000000000000000000000000000000000000000000081526004016109dc90611286565b60405180910390fd5b600254421015610a2a576040517f08c379a0000000000000000000000000000000000000000000000000000000008152600401610a219061161c565b60405180910390fd5b600560009054906101000a900460ff1615610a7a576040517f08c379a0000000000000000000000000000000000000000000000000000000008152600401610a7190611688565b60405180910390fd5b6001600560006101000a81548160ff02191690831515021790555060008054906101000a900473ffffffffffffffffffffffffffffffffffffffff1673ffffffffffffffffffffffffffffffffffffffff166108fc6003549081150290604051600060405180830381858888f19350505050158015610afd573d6000803e3d6000fd5b50600160009054906101000a900473ffffffffffffffffffffffffffffffffffffffff1673ffffffffffffffffffffffffffffffffffffffff166108fc6004549081150290604051600060405180830381858888f19350505050158015610b68573d6000803e3d6000fd5b507f1273b19bd37db7541ec10aebcb7899427619b2685565bd3c7b184c2732f8118e600354600454604051610b9e9291906115a7565b60405180910390a1565b60066020528060005260406000206000915054906101000a900460ff1681565b60025481565b600560009054906101000a900460ff1681565b60035481565b60045481565b600080610bf984610c6a565b90506000806000610c0986610c9a565b92509250925060018484848460405160008152602001604052604051610c3294939291906116d3565b6020604051602081039080840390855afa158015610c54573d6000803e3d6000fd5b5050506020604051035194505050505092915050565b600081604051602001610c7d9190611790565b604051602081830303815290604052805190602001209050919050565b60008060006041845114610ce3576040517f08c379a0000000000000000000000000000000000000000000000000000000008152600401610cda90611802565b60405180910390fd5b60008060006020870151925060408701519150606087015160001a9050601b8160ff161015610d1c57601b81610d199190611822565b90505b601b8160ff161480610d315750601c8160ff16145b610d70576040517f08c379a0000000000000000000000000000000000000000000000000000000008152600401610d67906118a3565b60405180910390fd5b8083839550955095505050509193909250565b600073ffffffffffffffffffffffffffffffffffffffff82169050919050565b6000610dae82610d83565b9050919050565b610dbe81610da3565b82525050565b6000602082019050610dd96000830184610db5565b92915050565b6000604051905090565b600080fd5b600080fd5b6000819050919050565b610e0681610df3565b8114610e1157600080fd5b50565b600081359050610e2381610dfd565b92915050565b600080fd5b600080fd5b6000601f19601f8301169050919050565b7f4e487b7100000000000000000000000000000000000000000000000000000000600052604160045260246000fd5b610e7c82610e33565b810181811067ffffffffffffffff82111715610e9b57610e9a610e44565b5b80604052505050565b6000610eae610ddf565b9050610eba8282610e73565b919050565b600067ffffffffffffffff821115610eda57610ed9610e44565b5b610ee382610e33565b9050602081019050919050565b82818337600083830152505050565b6000610f12610f0d84610ebf565b610ea4565b905082815260208101848484011115610f2e57610f2d610e2e565b5b610f39848285610ef0565b509392505050565b600082601f830112610f5657610f55610e29565b5b8135610f66848260208601610eff565b91505092915050565b600080600080600060a08688031215610f8b57610f8a610de9565b5b6000610f9988828901610e14565b9550506020610faa88828901610e14565b9450506040610fbb88828901610e14565b935050606086013567ffffffffffffffff811115610fdc57610fdb610dee565b5b610fe888828901610f41565b925050608086013567ffffffffffffffff81111561100957611008610dee565b5b61101588828901610f41565b9150509295509295909350565b6000819050919050565b61103581611022565b811461104057600080fd5b50565b6000813590506110528161102c565b92915050565b60006020828403121561106e5761106d610de9565b5b600061107c84828501611043565b91505092915050565b60008115159050919050565b61109a81611085565b82525050565b60006020820190506110b56000830184611091565b92915050565b6110c481610df3565b82525050565b60006020820190506110df60008301846110bb565b92915050565b600082825260208201905092915050565b7f4368616e6e656c20697320616c726561647920636c6f73656400000000000000600082015250565b600061112c6019836110e5565b9150611137826110f6565b602082019050919050565b6000602082019050818103600083015261115b8161111f565b9050919050565b7f416c72656164792066756e646564206279205061727479204200000000000000600082015250565b60006111986019836110e5565b91506111a382611162565b602082019050919050565b600060208201905081810360008301526111c78161118b565b9050919050565b7f4f6e6c7920506172747920422063616e2066756e640000000000000000000000600082015250565b60006112046015836110e5565b915061120f826111ce565b602082019050919050565b60006020820190508181036000830152611233816111f7565b9050919050565b7f4e6f742061206368616e6e656c207061727469636970616e7400000000000000600082015250565b60006112706019836110e5565b915061127b8261123a565b602082019050919050565b6000602082019050818103600083015261129f81611263565b9050919050565b6000819050919050565b6112c16112bc82610df3565b6112a6565b82525050565b60008160601b9050919050565b60006112df826112c7565b9050919050565b60006112f1826112d4565b9050919050565b61130961130482610da3565b6112e6565b82525050565b600061131b82876112b0565b60208201915061132b82866112b0565b60208201915061133b82856112b0565b60208201915061134b82846112f8565b60148201915081905095945050505050565b7f537461746520616c726561647920757365640000000000000000000000000000600082015250565b60006113936012836110e5565b915061139e8261135d565b602082019050919050565b600060208201905081810360008301526113c281611386565b9050919050565b7f496e76616c6964207369676e617475726520666f722050617274792041000000600082015250565b60006113ff601d836110e5565b915061140a826113c9565b602082019050919050565b6000602082019050818103600083015261142e816113f2565b9050919050565b7f496e76616c6964207369676e617475726520666f722050617274792042000000600082015250565b600061146b601d836110e5565b915061147682611435565b602082019050919050565b6000602082019050818103600083015261149a8161145e565b9050919050565b7f4e487b7100000000000000000000000000000000000000000000000000000000600052601160045260246000fd5b60006114db82610df3565b91506114e683610df3565b92508282019050808211156114fe576114fd6114a1565b5b92915050565b7f496e76616c69642066696e616c2073746174652062616c616e63657300000000600082015250565b600061153a601c836110e5565b915061154582611504565b602082019050919050565b600060208201905081810360008301526115698161152d565b9050919050565b60006060820190506115856000830186610db5565b61159260208301856110bb565b61159f60408301846110bb565b949350505050565b60006040820190506115bc60008301856110bb565b6115c960208301846110bb565b9392505050565b7f4368616e6e656c20686173206e6f742065787069726564207965740000000000600082015250565b6000611606601b836110e5565b9150611611826115d0565b602082019050919050565b60006020820190508181036000830152611635816115f9565b9050919050565b7f4368616e6e656c20616c726561647920636c6f73656400000000000000000000600082015250565b60006116726016836110e5565b915061167d8261163c565b602082019050919050565b600060208201905081810360008301526116a181611665565b9050919050565b6116b181611022565b82525050565b600060ff82169050919050565b6116cd816116b7565b82525050565b60006080820190506116e860008301876116a8565b6116f560208301866116c4565b61170260408301856116a8565b61170f60608301846116a8565b95945050505050565b600081905092915050565b7f19457468657265756d205369676e6564204d6573736167653a0a333200000000600082015250565b6000611759601c83611718565b915061176482611723565b601c82019050919050565b6000819050919050565b61178a61178582611022565b61176f565b82525050565b600061179b8261174c565b91506117a78284611779565b60208201915081905092915050565b7f496e76616c6964207369676e6174757265206c656e6774680000000000000000600082015250565b60006117ec6018836110e5565b91506117f7826117b6565b602082019050919050565b6000602082019050818103600083015261181b816117df565b9050919050565b600061182d826116b7565b9150611838836116b7565b9250828201905060ff811115611851576118506114a1565b5b92915050565b7f496e76616c696420760000000000000000000000000000000000000000000000600082015250565b600061188d6009836110e5565b915061189882611857565b602082019050919050565b600060208201905081810360008301526118bc81611880565b905091905056fea264697066735822122073050ed189bcaf3f657b8817710f90e3c5c311f19b9d60312a9886f9a502599a64736f6c634300081c0033",
  "linkReferences": {},
  "deployedLinkReferences": {}
}